:020000040800F2
:1000000090100020110300081F03000821030008BE
:100010002303000825030008270300080000000050
:100020000000000000000000000000005102000875
:100030002B03000800000000AD0200083D3000085E
:1000400031030008310300083103000831030008C0
:100050003103000831030008D51E0008191F0008ED
:10006000451F0008611F0008951F000831030008A4
:100070003103000831030008310300083103000890
:100080003103000831030008310300083103000880
:10009000551C000831030008310300083103000833
:1000A00031030008C13100083103000831030008A2
:1000B000D93200085D33000831030008310300081D
:1000C0003103000831030008310300083103000840
:1000D00031030008B5340008B9350008B936000806
:1000E0003103000831030008310300083103000820
:1000F0003103000831030008310300083103000810
:1001000031030008310300083103000831030008FF
:1001100031030008310300083103000831030008EF
:1001200031030008310300083103000831030008DF
:1001300031030008310300083103000831030008CF
:1001400031030008310300083103000831030008BF
:1001500031030008310300083103000831030008AF
:10016000310300083103000831030008310300089F
:10017000310300083103000831030008310300088F
:10018000310300083103000800F002F800F04CF8D9
:100190000AA090E8000C82448344AAF10107DA45E2
:1001A00001D100F041F8AFF2090EBAE80F0013F0E8
:1001B000010F18BFFB1A43F001031847986F0000A6
:1001C000B86F0000103A24BF78C878C1FAD8520737
:1001D00024BF30C830C144BF04680C6070470000C1
:1001E0000023002400250026103A28BF78C1FBD840
:1001F000520728BF30C148BF0B607047662905F021
:100200000283642900F0CA80002070471FB505F002
:10021000F0FA00F02DFC04000020002104F01CFD89
:10022000E0601FBD10B510BD00F02AFD1146FFF7BC
:10023000EDFF04F0FFF800F048FD03B4FFF7F2FF14
:1002400003BC03F0A4FF000040BA7047C0BA704777
:100250002C4B19680868B0E8F04F80F30988BFF3A9
:100260006F8F4FF0000080F311887047000000008E
:1002700008480068006880F308884FF0000080F3A9
:10028000148862B661B6BFF34F8FBFF36F8F00DF84
:1002900000BF00BF08ED00E0DFF80C00016841F48A
:1002A00070010160704700BF88ED00E0EFF3098046
:1002B000BFF36F8F134B1A681EF0100F08BF20EDAD
:1002C000108A20E9F04F106009B44FF0500080F31D
:1002D0001188BFF34F8FBFF36F8F04F065FB4FF0B2
:1002E000000080F3118809BC19680868B0E8F04F75
:1002F0001EF0100F08BFB0EC108A80F30988BFF31E
:100300006F8F704774000020EFF305807047000086
:100310000B48016841F4700101600A480047FEE79C
:10032000FEE7FEE7FEE7FEE7FEE7FEE7FEE7FEE7A5
:10033000FEE7000004480549034A054B70470000EA
:1003400088ED00E089010008900C0020901000204A
:10035000900C0020704700000FB4044910B503AAA8
:10036000029800F073FB10BC5DF814FB50000020F5
:100370000FB41CB5084B06AA7B446946009005984B
:1003800000F04BFB04460020694600F059FB204674
:100390001CBC5DF814FB0000C50600002DE9F0410F
:1003A0000646002410687529314616A510D0AFF313
:1003B0000080002802DA404213A507E031688A076E
:1003C00001D512A502E0490704D511A5012401E0D9
:1003D000AFF3008000210A2206F1240709E0B0FBF8
:1003E000F2FCB0FBF2F302FB1C00303078541846EC
:1003F000491C0028F3D123462A463046BDE8F04187
:1004000000F09EB8000000002D0000002B0000004E
:10041000200000002DE9F0474FF0000A894604460D
:10042000C0F820A02046E1688847002876D025281B
:1004300006D0D4E901219047206A401C2062F1E7F0
:10044000E168204600258847C4F81CA0064600271E
:10045000C4F818A02A2E09D0304603F091FE38B314
:1004600004EB8708303EC8F8186019E059F8041BFF
:10047000204604EB87029161E1688847012F064618
:1004800018D1E069002820DA25F020051DE0D8F811
:10049000180000EB800006EB40003038C8F8180068
:1004A0002046E1688847064603F06AFE0028EED140
:1004B000012F0AD02E2E08D12046E16888477F1CE4
:1004C0000646022F45F02005C4DBA069002803DAA8
:1004D000404245F00105A061E80701D025F0100574
:1004E000B6B1A6F14100192802D8203645F40065BE
:1004F0004A463146204625604D46FFF77FFE58B1FB
:10050000012806D0ED1D25F0070000F1080989E754
:1005100004E005F1040985E730468AE7206ABDE872
:10052000F087704770477047704710B500F0A4FA25
:10053000006810BD10B5044600F09EFA046010BDBE
:100540002DE9F0470D4699469246044600F12408ED
:100550000168880604D5E06921F01001216000E0FF
:100560000120A84201DD471B00E00027A1697A199C
:1005700002EB0900081AA0612078C00602D42046C8
:10058000AFF30080002608E0D4E901211AF8060044
:100590009047206A401C761C20624E45F4DB207890
:1005A000C0060AD52046AFF3008006E0D4E9012159
:1005B00030209047206A401C2062381EA7F10107B6
:1005C000F4DC07E0D4E9012118F805009047206A1F
:1005D000401C2062281EA5F10105F3DC2046AFF384
:1005E00000802078000602D50220BDE8F0870120B7
:1005F000FBE770472DE9FF4F0C461E464FF0FF37D3
:100600008BB0D2E90001DDF860800A908A46C1F320
:100610000A5505B93D46002108464FF00000BAF1E1
:10062000000F00F4400005DA00EB80004FF44001B9
:1006300001EA50004FEA9059B9F1010F00DDB946C7
:100640000A9850EA4A000ED044F61050A5F2FF3541
:1006500045432F14B8F1000F1ED07542291E1EDD30
:10066000C9F100021CE0B8F1010F4FF0000001D009
:10067000302103E0F24305E02154401CB042FBDB93
:1006800030460022002121540B99C1F80880C1E9AD
:1006900000200FB0BDE8F08FBD1B6D1CDEE74A46A1
:1006A00000DA694206A800F071FA06AB93E8070089
:1006B00003AB83E8070050460A9900F04FFB8DE832
:1006C0000700A0F500501F3800900398002D0ADDA8
:1006D00042F21F014A460844002303A903906846DA
:1006E00000F0B8FD09E0A0F500504A461F3800238D
:1006F00003A90390684600F0C2FD8DE807000004DE
:10070000000C03D04FF0FF30410800E01046B8F174
:10071000000F03D00022009215461EE0751E05D47E
:1007200000F0AEF9303262556D1EF9D5B3460122A4
:10073000084302D000227F1C04E02078302801D139
:1007400000227F1E002A099784D01DE0112D07DAB0
:1007500000F096F9303262556D1C50EA0102F5D175
:10076000084302D00098C8B10EE00021681E05E0E1
:10077000235C625C63542254401E491C8142F7DBB7
:10078000AB46A81B401E0990002004F80B000B98F4
:10079000099AC0F80880C0E9002B7AE711264FF0CB
:1007A000000857E72DE9F04F88460446D21D22F095
:1007B000070191B0D1E90001CDE90A0102F0FCFF87
:1007C00002460B98C00F01D02D2007E0206881075A
:1007D00001D52B2002E0202101EAC000032A099064
:1007E00001D0072A05DB03464146204600F08EF97A
:1007F0000BE12078800601D5E06900E00620B8F121
:10080000650F814606D0B8F1660F18D0B8F1670FB2
:1008100070D131E00020B9F1110F009001DB1123FC
:1008200001E009F101030AAA01A90CA8FFF7E2FE01
:10083000DDE90C70002609F10105834647E001203F
:100840004B4600904FF000470AAA01A90CA8FFF7F9
:10085000D1FEDDE90DB00C995D46002610B909F115
:1008600001000D18B9EB050003D4C0F1FF3609F102
:100870000105A5EB09002BE0B9F1010F01DA4FF0FA
:1008800001090020B9F1110F0090484601DD112344
:1008900000E003460AAA01A90CA8FFF7ABFEDDE9B8
:1008A0000C704D4600268346207800070AD4AB45DD
:1008B00000DA5D4601A8012D04DD411911F8011C83
:1008C000302907D04F4502DA17F1040F04DA01206E
:1008D00082460FE06D1EEEE7002F02DCED1B3E446A
:1008E00003E0781CA84200DD7D1CB81B00F1010A62
:1008F0004FF000472078000703D4AA4501DB4FF0F2
:10090000FF3A0021B7F1004F0DF143088DF8431075
:1009100024D002202B23002F01DA7F422D230A212D
:10092000021EA0F1010000DC5FB197FBF1FC97FB18
:10093000F1F201FB1C7C17460CF1300C08F801CDDC
:10094000EEE7A8F1010003702188090501D54521D2
:1009500000E06521A0F1010800F8011C09980FA929
:10096000A1EB0807FF1D00B10120411901EBEA705E
:10097000A1693844081A401EA0612078C00602D43C
:100980002046AFF30080099828B1D4E901219047AF
:10099000206A401C20622078C00622D52046AFF392
:1009A00000801EE0002E04DBB34502DD01A8805D5F
:1009B00000E03020D4E901219047206A401C2062E9
:1009C000761CAAF101005FEA000A0AD100F050F893
:1009D000C0680168405CD4E901219047206A401C4E
:1009E0002062281EA5F10105DCDC07E0D4E9012125
:1009F00018F8010B9047206A401C2062381EA7F1AE
:100A00000107F3DC2046AFF30080032011B041E67C
:100A100001694A1C02610878704700B58FB0CDE9C2
:100A200001310021059105497944CDE903101146B2
:100A30006846FFF7EFFC0FB000BD0000E5FFFFFFC9
:100A40000A6802F8010B0A6070470000074B70B596
:100A50000D467B44FFF7E1FF0446284600F008F905
:100A600010B14FF0FF3070BD204670BD5F38000000
:100A7000004870474C0C0020004870472C0C0020A8
:100A800030B5B0F10A024FEA900E71F100034EEA60
:100A9000817EB0EB0E0061EB91014FEA101E4EEA31
:100AA000017E10EB0E0041EB11114FEA102E4EEAC1
:100AB000016E10EB0E0041EB11214FEA104E4EEA91
:100AC000014E10EB0E0041EB1141401841F10001C5
:100AD0004FEAD00040EA41704FEAD10110EB8005A7
:100AE0004FEA810444EA907444EB01046D1944EB2D
:100AF0000404521BA3414FF0000348BF0A3200D543
:100B000030BD401C41F1000130BD00002DE9F04135
:100B10001F46044603260168072A01F4006004DB2F
:100B200008B116A505E016A503E008B115A500E07B
:100B300015A521F010002060A069C01EA0610FB1B2
:100B4000401EA0612046AFF300804FB1D4E90121DF
:100B500038469047206A401C2062C01C206206E094
:100B6000206AFAE7D4E9012115F8010B9047761EB7
:100B7000F8D22046AFF30080BDE8F0814E414E0030
:100B80006E616E00494E4600696E66002DE9F047C1
:100B9000814616468AB0354878440DC88DE80D0068
:100BA00032487844801C03AC0DC884E80D0041F63F
:100BB0009B300844372190FBF1F290FBF1F5A5F151
:100BC000800501FB12041B3C02D56442012000E0B9
:100BD0000020DFF898A080460027FA44AAF1BE0A58
:100BE0000EE0E0070AD03246684607EB47010123D2
:100BF0000AEB810100F043FB8DE8070064107F1CC5
:100C0000002CEED1194F7F44AE3F19E0E80715D014
:100C100007EB04100DF1180A90E80E008AE80E00A8
:100C2000C068F04201D1981908903246012306A904
:100C300003A800F024FB03AB83E807006D10641CDD
:100C4000002DE3D14FF0010332466946B8F1000FA1
:100C500003A802D000F0FEFA01E000F010FBC9E9A1
:100C60000001C9F808200AB0BDE8F087A0650000BF
:100C7000007B00F080007047004870472C0C00207B
:100C80007546FFF7F9FFAE4605006946534620F06A
:100C90000700854618B020B5FFF74CFBBDE82040A3
:100CA0004FF000064FF000074FF000084FF0000B28
:100CB00021F00701AC46ACE8C009ACE8C009ACE8DB
:100CC000C009ACE8C0098D46704710B50446AFF3C3
:100CD00000802046BDE81040FFF7AFBA4FF0013C5E
:100CE00050F8042B51F8043B9A4221D1A2EB0C039B
:100CF000934313EACC1317D150F8042B51F8043B5B
:100D00009A4215D1A2EB0C03934313EACC130BD1F7
:100D100050F8042B51F8043B9A4209D1A2EB0C0382
:100D2000934313EACC13DBD04FF00000704700BFB1
:100D3000D01A01BAB1FA81F101F0180122FA01F0DA
:100D4000CB40C1F12001DBB2C0B2C01A2CFA01F3D2
:100D5000D11A914311EAC311E6D170475FEA400C02
:100D600008BF91F0000F4FEA8C234FEAC12243EAFB
:100D700051514FEA1C5018BF00F5F0404FEA3000C7
:100D800018BF41F000415FEA6C5C00F02980BCF1C3
:100D9000FF3F08BF40F080407047130C06BF1204AD
:100DA0004FF0100C4FF0000C130E04BF12020CF1A8
:100DB000080C130F04BF12010CF1040C930F04BFB5
:100DC00092000CF1020CD30F04BF52000CF1010C85
:100DD00011464FF00002A0F11F00A0EB0C0070477D
:100DE00011F0004F08BF704731F000413FF4D5AF1C
:100DF0000B0C06BF09044FF0100C4FF0000C0B0E4B
:100E000004BF09020CF1080C0B0F04BF09010CF11F
:100E1000040C8B0F04BF89000CF1020CCB0F04BF34
:100E200049000CF1010CCCF12003A0EB0C0022FADC
:100E300003F302FA0CF241EA030100F101007047EA
:100E400020F07F4C80EA030023F07F47ACEB0703E0
:100E500003F57C5300F0004003F1FF032DE98049C6
:100E60004FEA154B09B44FEA144325EA0B4E24EA26
:100E700003480FF2042606EB132749083E785FEA81
:100E8000320203FB0667C7F5000707FB06F64FEAC9
:100E900054374FEAD64606F1020607FB066CCCF142
:100EA000005C4FEA1C472CEA074C07FB06F40CFBDE
:100EB00006F504EB15464FEA961634BF00204FF0B6
:100EC00000404FEAD13706FB07FC4FEA1C4C0CFBF5
:100ED0000BF7D21B03FB0CF761EB07010CFB0EF7C2
:100EE000B0EB074072EB17420CFB08F734BFA2EBE4
:100EF0000742B2EB074261EB17414FEA0C444FEA5D
:100F0000910706FB07FC4FEA1C4C0CFB0BF7B0EB00
:100F1000C74072EB573203FB0CF734BFA2EBC7425A
:100F2000B2EBC74261EB57310CFB0EF7B0EBC700D9
:100F300072EB57720CFB08F734BFA2EBC702B2EB9F
:100F4000C70261EB5771039F4FEA816141EA921139
:100F500004EBCC044FEAD1374FEA826206FB07FC70
:100F600042EA90124FEA80604FEA1C4C0CFB0BF7F0
:100F7000D21B03FB0CF761EB07010CFB0EF7B0EB88
:100F8000074072EB17420CFB08F734BFA2EB074295
:100F9000B2EB074261EB17414FEA8C554FEA9107DC
:100FA00004EB9C2406FB07FC4FEA1C4C0CFB0BF7E4
:100FB000B0EBC74072EB573203FB0CF734BFA2EB28
:100FC000C742B2EBC74261EB57310CFB0EF7B0EBF7
:100FD000C70072EB57720CFB08F734BFA2EBC702D5
:100FE000B2EBC70261EB577115EB4C254FEA8161FB
:100FF00041EA92114FEA82624FEAD13742EA9012F7
:1010000006FB07FC44F100044FEA80604FEA1C4CE9
:101010000CFB0BF7D21B03FB0CF761EB07010CFB7E
:101020000EF7B0EB074072EB17420CFB08F734BF2A
:10103000A2EB0742B2EB074261EB174115EB1C151F
:101040004FEA813141EA92414FEA823242EA9042CC
:101050004FEA80304FEA0C7644F1000448EA03433B
:101060004EEA0B484FF0000EB2EB080C71EB030791
:1010700024BF624639464EEB0E0E4FF0000B0018AF
:10108000524149414BEB0B0BB2EB080C71EB0307E0
:101090007BF1000B24BF624639464EEB0E0E4FF03B
:1010A000000B0018524149414BEB0B0BB2EB080C03
:1010B00071EB03077BF1000B24BF624639464EEB10
:1010C0000E0E51EA020718BF46F0010616EB0E7627
:1010D00055F1000254F1000103D5BDE88901BDE8D6
:1010E0000088BDE88901BDE80048B619524141EBCE
:1010F0000101A3F10103704780807F7E7D7C7B7AB4
:101100007978777676757473727171706F6E6E6DB3
:101110006C6C6B6A6A696868676666656464636359
:1011200062616160605F5F5E5E5D5D5C5C5B5B5ADF
:101130005A5959585857575656555555545453534C
:1011400052525251515050504F4F4F4E4E4D4D4DA7
:101150004C4C4C4B4B4B4A4A4A49494948484847F2
:101160004747474646464545454444444443434330
:101170004342424242414141002B9C4630D47700D9
:101180002BD01CB54FEA370703B44FF010004FF0D7
:101190001001BAF1000F06D0BCF1000FDCBF40F027
:1011A000080040F008014FF000000FBCBDE81040FF
:1011B0000BF1010BBBF1010F08BF5FEA170722BF5C
:1011C00012F1010211F101014FF0004143F100035E
:1011D00000F0004043EA00007047F9D35708D0E719
:1011E00046EA064613F1400F4FEA16461FDD13F19B
:1011F000200FDFBF16430A46002120335B42BED0DA
:10120000C3F1200746EA064602FA07F74FEA1646F8
:1012100046EA0706C3F1200722FA03F201FA07F7AC
:1012200021FA03F14FF0000342EA0702A7E746EA7A
:10123000020646EA06464FEA164646EA0106BCBFE3
:1012400046EA0646360C4FF000034FF000024FF01E
:10125000000194E72DE9804C9A46934670B491E8DA
:10126000380007C831EA400C48BF34EA430C03D5C4
:10127000FFF7E6FDFFF780FFF0BCBDE8008C2DE92D
:10128000804C9A46934670B491E8380007C810F035
:10129000804F08BF13F0804F03D100F005F8FFF72F
:1012A0006BFFF0BCBDE8008C20F07F4780EA0300B4
:1012B00023F07F4C07EB0C03A3F57C5300F00040B8
:1012C000A3F1FE0392F0000F00F0B38095F0000F41
:1012D00000F077802DE901494FEA11404FEA1446AA
:1012E00021EA004800FB06FC24EA064708FB06F654
:1012F00007FB08F800FB07F718EB06484CEB164C09
:101300004FEA124B18EB07484FEA15464CEB1740D3
:1013100022EA0B4E0BFB06FC25EA06470EFB06F6FF
:1013200007FB0EFE0BFB07F71EEB064E4CEB164CB5
:101330004FF000061EEB074E4CEB174B18EB0B085B
:1013400040F1000018EB0E0B58EB000840F10000D4
:101350008F1A4FF000013CBFC943661B14BFB5EBA9
:10136000040C00213CBFC943F61B4FEA17444EEA68
:101370008E0E27EA04454FEA1C4704FB07622CEA5D
:10138000074C05FB07F70CFB05F604FB0CFC16EB02
:10139000074642EB174216EB0C4642EB1C421BEB96
:1013A000060658EB0202414146EA9E0601D5BDE819
:1013B0000189B619524141EB0101A3F10103BDE8D6
:1013C00001894FEA14454FEA114724EA054621EA0C
:1013D000074C05FB07F406FB07F70CFB06F105FBC2
:1013E0000CFC11EB074144EB17444FEA124711EB99
:1013F0000C4144EB1C4422EA074C05FB07F206FBB8
:1014000007F70CFB06F605FB0CFC16EB074642EB58
:10141000174216EB0C4642EB1C456A1854F10001CA
:1014200048BF7047B619524141EB0101A3F10103D6
:10143000704795F0000F37D04FEA11424FEA14473A
:1014400021EA024624EA074C02FB07F106FB07F7F4
:101450000CFB06F402FB0CFC14EB074441EB1741B8
:101460004FEA154714EB0C4441EB1C4125EA074CAD
:1014700002FB07F506FB07F70CFB06F602FB0CFC6C
:1014800016EB074645EB174516EB0C4645EB1C42A1
:10149000121951F1000148BF7047B619524141EB92
:1014A0000101A3F1010370474FEA14454FEA1147C8
:1014B00024EA054621EA074C05FB07F106FB07F77E
:1014C0000CFB06F24FF0000605FB0CFC12EB07428A
:1014D00041EB174112EB0C4251EB1C4148BF7047E6
:1014E000921841EB0101A3F10103704710B52DEDF6
:1014F000088B044614B9BDEC088B10BD724890ED02
:10150000000A7248D0ED000A20EE200A7048D0EDA3
:10151000000A704890ED001A00EEC10AF8EE000AC9
:1015200020EE200A10EE101A084604F0F1F841EC03
:101530001A0BB0EE4A0AF0EE6A0A02F055F9B0EE64
:10154000409AF0EE609A9FED640B53EC102B51EC37
:10155000190B03F01DFE41EC180B03F09FFB2060FC
:101560005B4890ED000AD0ED000A20EE200A5648B4
:10157000D0ED000A90ED001A00EEC10A5548D0EDFA
:10158000000A90ED001A00EEC10A5048D0ED000AA2
:1015900090ED001A00EE810A10EE101A084604F0D1
:1015A000B7F841EC1A0B4A4890ED000A4648D0EDD6
:1015B000000A20EE200A4748D0ED000A434890ED8B
:1015C000001A00EE810AF0EE000A20EE200A10EE6A
:1015D000101A084604F09CF841EC1B0BB0EE4A1AB6
:1015E000F0EE6A1AB0EE4B0AF0EE6B0A02F018FC4D
:1015F000B0EE409AF0EE609A9FED370B53EC102B53
:1016000051EC190B03F0C4FD41EC180B03F046FB41
:1016100060602F4890ED000AD0ED000A20EE200A0D
:101620002948D0ED000A90ED001A00EE810A294801
:10163000D0ED000A90ED001A00EEC10A2348D0ED6B
:10164000000A90ED001A00EEC10A10EE101A0846CA
:1016500004F05EF841EC1A0B1B4890ED000A1D489F
:10166000D0ED000A20EE200A1948D0ED000A1748F4
:1016700090ED001A00EE810AF0EE000A20EE200A3A
:1016800010EE101A084604F043F841EC1B0BB0EEC4
:101690004A1AF0EE6A1AB0EE4B0AF0EE6B0A02F04C
:1016A000BFFBB0EE409AF0EE609A9FED0B0B53EC4F
:1016B000102B51EC190B03F06BFD41EC180B03F0F0
:1016C000EDFAA06000BF16E7C0000020C8000020AF
:1016D000BC000020C400002000000020DCA54C401D
:1016E000B2EE040A154880ED000A9FED150A154870
:1016F00080ED000AB7EE000A134880ED000A9FED66
:10170000100A124880ED000A9FED0D0A104880ED86
:10171000000A9FED0B0A0F4880ED000A9FED080AB2
:101720000D4880ED000A9FED060A0C4880ED000A86
:101730009FED030A0A4880ED000A7047B4000020BC
:1017400000000000B8000020BC000020C000002005
:10175000C4000020C8000020CC000020D0000020E1
:10176000D400002000B52DED108B81B0F0EE408A42
:10177000B0EE609AF0EE419AF0EE61BAB0EE42AA95
:10178000F0EE62AAB0EE43BAF5EEC0BAF1EE10FA8E
:1017900009D0B5EEC0AAF1EE10FA04D0F5EEC0AA59
:1017A000F1EE10FA03D101B0BDEC108B00BD6BEE71
:1017B000AB0A4AEE0A0A4AEEAA0AB0EE600A02F042
:1017C0001BFEB0EE408AB0EE480A2BEE800AF0EE27
:1017D00040BAB0EE480A2AEE000AB0EE40AAB0EED7
:1017E000480A2AEE800AF0EE40AAAA4890ED000AC4
:1017F000A948D0ED000A20EE200AA848D0ED000A42
:10180000A74890ED001AF0EE40DA40EEC1DAA348A6
:1018100090ED000A9F48D0ED000A20EE200AA04873
:10182000D0ED000A9C4890ED001AB0EE40EA00EEC0
:1018300081EA9A48D0ED000A90ED001AB6EE000A4F
:1018400010EE810A9448D0ED000A90ED001AF0EEF7
:1018500040EA40EE81EA2AEE2E0AB0EE40FA0AEEA5
:10186000CEFA2AEEAD0AF0EE40FA4BEEEEFA2BEE8F
:101870008E0A0AEE6D0A8DED000A8A4890ED000A84
:10188000B5EEC00AF1EE10FA3ADD90ED000A60EE16
:101890000F0A854890ED000A00EE8B0A80ED000AE1
:1018A000804890ED000A60EE2F0A804890ED000A13
:1018B00000EE8B0A80ED000A7A48D0ED000A9DED1B
:1018C000000A60EE800A7A4890ED000A00EE8B0A6A
:1018D00080ED000A744890ED000A38EE800AF0EEC0
:1018E000408A724890ED000A39EE000AB0EE409A44
:1018F0006F4890ED000A39EE800AF0EE409A0EE053
:101900009FED6C0A684880ED000A9FED6A0A6748FF
:1019100080ED000A9FED670A654880ED000A664881
:10192000D0ED000AB0EE680A00EE8F0AF0EE408AB1
:10193000D0ED000AB0EE490A00EEAF0AB0EE409AD0
:1019400090ED001A9DED000AF0EE690A41EE000AE2
:10195000F0EE609AB6EE000A2BEE000A20EE280A9E
:10196000F0EE408AB6EE000A2BEE000A20EE090ADD
:10197000B0EE409AB6EE000A2BEE000A20EE290ADD
:10198000F0EE409A454890ED00CA4248D0ED00CABA
:10199000434890ED00DAB1EE6C0A20EE280A0DEE15
:1019A000490A3D48D0ED000A00EEE90A3B48D0ED77
:1019B000000A30EE200A80ED000A2CEE280A0DEE17
:1019C000290A3548D0ED000A00EEC90A3148D0EDA9
:1019D000000A30EE200A80ED000A2CEE090A0CEE17
:1019E000E90A2D48D0ED000A00EEA80A2C48D0EDF7
:1019F000000A30EE200A80ED000A2CEE290A0CEED7
:101A0000890A0DEE680A2448D0ED000A30EE200A5B
:101A100080ED000A2148D0ED000A90ED001A60EE3A
:101A2000810A1C4890ED001AD0ED001A41EE210AFF
:101A30001B4890ED001AD0ED001A41EE210A16481D
:101A400090ED001AD0ED001A41EE210AB0EE600AC6
:101A500002F0D2FCB0EE408A104890ED000A20EE71
:101A6000080A80ED000A0B4890ED000A20EE080AF3
:101A700080ED000A0A4890ED000A20EE080A80ED89
:101A8000000A054890ED000A20EE080A80ED000AE1
:101A900000BF88E6C0000020C8000020BC00002075
:101AA000C4000020B8000020CC000020D00000209E
:101AB000D400002000000000B40000207CB5002409
:101AC0005F48006840F001005D4908600120022184
:101AD00000230A46CDE900104FF4C051594800F0E8
:101AE0002BFB09220B21574800F006FB09220C2191
:101AF000544800F001FB52481030006840F000707C
:101B00004F491031086000204F49086008460068BE
:101B100040F00100086005E0601C84B2642C01DD27
:101B200002207CBD4848001D006800F0010000282C
:101B3000F2D04548006844490860084600680860DB
:101B400008460068086008460068086008460068A3
:101B500008600846006840F01000086004253A4814
:101B60001C3000683949084037491C310860084674
:101B70000068691EC1F3080141F0A77108433249AA
:101B80001C3108603048006820F001002E490860D0
:101B900007E0601C84B24FF6F070844201DD032040
:101BA000BFE72948001D006800F001000028F0D1BF
:101BB0002748006840F001002549086024481C308F
:101BC000006820F0010022491C31086020480C30D8
:101BD000006840F001001E490C3108601C48001DDF
:101BE00000681B49091D086019481430006818492D
:101BF0001431086000201649403108600021144863
:101C00004430016012481C30006840F00100104967
:101C10001C3108600E48006800200D4908600A4821
:101C20001430006840F002000749143108600223B4
:101C300014220021012000F003FF002071E70000C2
:101C400030380240000002400064004000FE80FC8A
:101C50000066004000B589B007A803A904AB05AA37
:101C6000CDE9001006A9002000F094F81EA0069906
:101C7000FEF772FB9DF814101DA0FEF76DFB9DF89A
:101C800010101EA0FEF768FB9DF80C101EA0FEF7BA
:101C900063FB9DF81C101FA0FEF75EFB9DF81D1056
:101CA00020A0FEF759FB9DF81E1022A0FEF754FB62
:101CB0009DF81F1023A0FEF74FFB9DF8201025A0D4
:101CC000FEF74AFB9DF8211026A0FEF745FB9DF884
:101CD000221028A0FEF740FB9DF8231029A0FEF754
:101CE0003BFB09B000BD000069643A25640D0A00A1
:101CF0006964653A25640D0A000000007274723A46
:101D000025640D0A000000006C656E3A25640D0A1A
:101D10000000000072786275665B305D3A25640DE4
:101D20000A00000072786275665B315D3A25640DC9
:101D30000A00000072786275665B325D3A25640DB8
:101D40000A00000072786275665B335D3A25640DA7
:101D50000A00000072786275665B345D3A25640D96
:101D60000A00000072786275665B355D3A25640D85
:101D70000A00000072786275665B365D3A25640D74
:101D80000A00000072786275665B375D3A25640D63
:101D90000A000000F0B5DDE90554324E06EB0016EE
:101DA000366806F004061670167836B92D4E06EB26
:101DB00000163668760D0E6005E02A4E06EB00161A
:101DC0003668F6080E60274E06EB0016366806F0F9
:101DD00002061E70234E06EB0016766806F00F060C
:101DE0002E70204E06EB0016B66826701D4E06EBD0
:101DF0000016B668360A66701A4E06EB0016B6680C
:101E0000360CA670174E06EB0016B668360EE67056
:101E1000144E06EB0016F6682671124E06EB0016FD
:101E2000F668360A66710F4E06EB0016F668360C39
:101E3000A6710C4E06EB0016F668360EE67130B948
:101E4000094E366846F02006074F3E6009E001283B
:101E500007D1054E361D366846F02006024F3F1D5D
:101E60003E60F0BDB06500400C640040144800685E
:101E700040F40010124908601248006820F0010088
:101E80001049A039C1F8A00000BF0E48006800F05A
:101E900001000028F9D10B48A038C06840F47C103C
:101EA0000849A039C8600848064908310860074851
:101EB0000449A039C1F8AC000548024908607047E0
:101EC00030380240A060024004440040E409002091
:101ED0004004020801200C4908600C4908700C48B5
:101EE0000088401C0A49088008460088642809DBED
:101EF000002008800748006808B9012000E00020A1
:101F00000449086070470000143C01405C00002058
:101F100058000020BC0242420220074908600748DE
:101F20000088401C0549088005480088322802DBEB
:101F30000020034908807047143C014058000020ED
:101F40005A00002010B50A2002F04CF9024800683F
:101F500004200249086010BD10024242143C0140B6
:101F600010B50A2002F03EF90848006848B9074851
:101F70009430006808B9012000E000200349943142
:101F8000086008200249086010BD00000C024242AF
:101F9000143C014010B50A2002F024F908480068FA
:101FA00048B907489030006808B9012000E00020D7
:101FB00003499031086010200249086010BD0000FC
:101FC00010024242143C01401CB500F0CFF91B48FE
:101FD000006840F0020019490860012000210B460A
:101FE0000A46CDE900100321154800F0A5F80122AA
:101FF0000021104600F026F8022306220021184690
:1020000000F01EFD01221146104600F01BF80122CF
:102010000321042000F016F80223092203211846A8
:1020200000F00EFD01220421084600F00BF8022307
:102030000A220421184600F003FD1CBD303802407E
:1020400000040240F0B503460846CD1701EB957534
:10205000AD10A1EB8505AD062C0E2448006840F4B8
:102060008040224D2860CD1701EB9575AE10204DB4
:1020700055F826500F26A640B5430846CE1701EB6B
:102080009676B7101A4E46F82750CD1701EB957586
:10209000AE10174D55F8265003FA04F63543CE1707
:1020A00001EB9676B710124E46F82750114800689B
:1020B00001258D4028430F4D286002F0010040B1FA
:1020C0000C480C30006801258D402843094D0C3523
:1020D000286002F0020040B106480830006801257F
:1020E0008D402843034D08352860F0BD4438024038
:1020F00008380140003C014030B5CC1000F120030D
:1021000053F824304C07E50E0F24AC40A343CD1008
:1021100000F1200444F82530CC1000F1200353F8DE
:1021200024304C07E40E02FA04F42343CD1000F1EE
:10213000200444F8253030BD2DE9F0470C46DDE998
:102140000867002100258C4600BF60E04FF00108C1
:1021500008FA01F504EA050CAC4557D1D0F8008027
:102160004FEA410A4FF0030909FA0AF928EA090877
:10217000C0F80080D0F800804FEA410902FA09F95E
:1021800048EA0908C0F80080012A01D0022A27D1B4
:10219000D0F808804FEA410A4FF0030909FA0AF91A
:1021A00028EA0908C0F80880D0F808804FEA4109F9
:1021B00006FA09F948EA0908C0F80880D0F804903E
:1021C0004FF0010808FA01F829EA0809C0F804905C
:1021D000D0F8048003FA01F948EA0908C0F804803D
:1021E000D0F80C804FEA410A4FF0030909FA0AF9C6
:1021F00028EA0908C0F80C80D0F80C804FEA4109A1
:1022000007FA09F948EA0908C0F80C80491C1029A6
:102210009CD3BDE8F087000010B52DED108B9CB06D
:10222000B0EE408AF0EE608AB0EE419AF0EE619A2C
:10223000B0EE42AAF0EE62AAB0EE43EAF0EE63EA34
:10224000B0EE44FA3B48006800F0010018B11CB041
:10225000BDEC108B10BD4FF47C103649A039C8601E
:102260001FEE100A03F054FA41EC1B0B1EEE900A0D
:1022700003F04EFA41EC1C0B1EEE100A03F048FA74
:1022800041EC1D0B1AEE900A03F042FACDE91A0157
:102290001AEE100A03F03CFACDE9180119EE900A83
:1022A00003F036FACDE9160119EE100A03F030FA00
:1022B000CDE9140118EE900A03F02AFACDE91201D3
:1022C00018EE100A03F024FACDE910018DED0EBBD3
:1022D0008DED0CCB8DED0ADB9DED1A0B8DED080B12
:1022E0009DED180B8DED060B9DED160B8DED040B82
:1022F0009DED140B8DED020B9DED120B8DED000B82
:102300009DED100B53EC102B0BA11748FEF730F886
:1023100004460848001D046013480649A039C1F866
:10232000AC000846D0F8A00040F00100C1F8A000C1
:1023300000BF8CE7A0600240252E32662C252E328D
:10234000662C252E32662C252E32662C252E3266E2
:102350002C252E32662C252E32662C252E32662C0C
:10236000252E32660D0A0000E40900201CB508483D
:10237000006840F0100006490860012000210B466B
:102380000A46CDE9001018210248FFF7D5FE1CBD12
:1023900030380240001002401CB54648006840F04A
:1023A0000400444908600846006840F008000860DE
:1023B0000846006840F01000086001200321002357
:1023C0000246CDE9001030213B48FFF7B5FE012061
:1023D000032100230246CDE900104FF4784137482D
:1023E000FFF7AAFE0120032100230246CDE90010D9
:1023F00048F204113248FFF79FFE0120314908607E
:102400003149C1F8A0022F49343108602F490860D2
:10241000091D0860091D0860091D0860091D086084
:102420002B4908602B49C1F894022248006840F00B
:102430000200204908600120032100230246CDE963
:10244000001009022448FFF777FE01200321002332
:102450000246CDE900104FF4E0511748FFF76CFE3B
:102460000120032100230246CDE900100146134854
:10247000FFF762FE0120032100230246CDE9001090
:102480000F48FFF759FE002011491C310860091F51
:1024900008600F49203108600C492C3908600F4949
:1024A0000860091F08600749083908600649C1F833
:1024B00084021CBD3038024000080240000C02407B
:1024C000001002408802424200004242AC82414277
:1024D000900241420000414200040240A482404276
:1024E0002DE9FC4104460D4616466B4606223B216B
:1024F000682000F0A6F80746BFB99DF801009DF8D6
:10250000001040EA012000B220809DF803009DF8F1
:10251000021040EA012000B228809DF805009DF8D5
:10252000041040EA012000B230803846BDE8FC814A
:102530002DE9FC4104460D4616466B460622432112
:10254000682000F07EF80746BFB99DF801009DF8AD
:10255000001040EA012000B220809DF803009DF8A1
:10256000021040EA012000B228809DF805009DF885
:10257000041040EA012000B230803846BDE8FC81FA
:1025800010B5002400F038F980216B2000F0DDF850
:10259000642001F027FE00216B2000F0D6F8032014
:1025A00000F091F8002000F086F84FF47A7000F007
:1025B000AFF80021382000F0C8F800216A2000F0B0
:1025C000C4F80021232000F0C0F88021372000F05B
:1025D000BCF8752000F018F80446702C10D10121C9
:1025E0006B2000F0B2F800216C2000F0AEF84FF440
:1025F0007A7000F08DF80121382000F0A6F801E093
:10260000012010BD0020FCE770B5044600F0A0F9E1
:10261000D02000F06FF900F0E3F9204600F06AF9ED
:1026200000F0DEF900F094F9D12000F063F900F039
:10263000D7F9002000F02AF9054600F0ADF9284648
:1026400070BD2DE9F04106460F4614461D4600F0C8
:102650007FF9002141EA4601C8B200F04BF900F0D1
:10266000BFF920B100F098F90120BDE8F0813846AB
:1026700000F040F900F0B4F900F06AF9012101EB33
:102680004601C8B200F036F900F0AAF90DE0012CBD
:1026900004D1002000F0FAF8287003E0012000F0D7
:1026A000F5F82870601EC4B26D1C002CEFD100F04C
:1026B00073F90020D9E710B50446E006010E1C208E
:1026C00000F043F810BD10B50446E006010E1B20D3
:1026D00000F03BF810BD70B504460025BC2C01DBB2
:1026E000012510E0622C01DB02250CE02A2C01DB25
:1026F000032508E0142C01DB042504E00A2C01DB8F
:10270000052500E0062501211A2000F01EF870BD05
:1027100070B50446B4F57A7F01DD4FF47A74042C69
:1027200000DA04244FF47A7090FBF4F0401EC5B236
:102730002946192000F009F80546264604EBD67113
:10274000C1F34F00FFF7C7FF70BD70B505460C46DB
:1027500000F0FEF8D02000F0CDF800F041F918B1FB
:1027600000F01AF9012070BD284600F0C3F800F00F
:1027700037F9204600F0BEF800F032F918B100F049
:102780000BF90120EFE700F007F90020EBE700006C
:1027900010B50020124908601248006820F440007B
:1027A000104908600846006840F480000860002076
:1027B0000D49C1F8AC0200F019F801200849086081
:1027C00000F014F800200849C1F8A80200F00EF843
:1027D00001200349091D086000F008F810BD000041
:1027E000A8824042000402400080404210B502200E
:1027F00001F014FD10BD00001CB50C48006840F04D
:1028000002000A4908600120022100230246CDE9A6
:1028100000104FF440610648FFF78EFC0120054987
:1028200008600549C1F8AC021CBD00003038024008
:1028300000040240A88240420080404210B50020BF
:102840000F4908600F48006820F440000D490860F7
:102850000846006840F48000086001200A49C1F879
:10286000AC02FFF7C3FF012005490860FFF7BEFF78
:1028700000200549C1F8A802FFF7B8FF10BD00000D
:10288000A8824042000402400080404270B50546E4
:1028900000241548006820F44000134908600846E9
:1028A00000680860002614E0002010490860FFF767
:1028B0009DFF01200E49C1F8A8026006040E0B48D6
:1028C0007C38006808B1601CC4B2FFF78FFF701C31
:1028D000C6B2082EE8DB15B9FFF7B0FF01E0FFF73D
:1028E00057FF204670BD000000040240A88240420D
:1028F0000080404270B504461248006820F4400051
:10290000104908600846006840F480000860002014
:102910000D490860002512E0E0090B49091D086017
:102920006006040E01200949C1F8A802FFF75EFF06
:10293000002005490860FFF759FF681CC5B2082D43
:10294000EADB70BD00040240A882404200804042A1
:1029500010B50E48006820F440000C490860084695
:10296000006840F4800008600120094908600949B6
:10297000C1F8A802FFF73AFF002005490860FFF7F9
:1029800035FF00200349C1F8A80210BD0004024031
:10299000AC8240420080404210B50E48006820F4EE
:1029A00040000C4908600846006840F48000086058
:1029B0000020094908600949C1F8AC02FFF716FF79
:1029C0000120054908600549C1F8AC02FFF70EFF78
:1029D00010BD000000040240A88240420080404236
:1029E00010B500241348006820F440001149086025
:1029F00008460068086001200F490860FFF7F6FEEE
:102A000001200E49C1F8A802FFF7F0FE07E0601CA4
:102A1000C4B2FA2C03DDFFF7BFFF012010BD06484A
:102A2000803800680028F2D10349091F086000BF00
:102A3000F4E7000000040240AC82404200804042C3
:102A40002DE9F0410746884614461D46284600F009
:102A500033F8C5F1040007FA00F60F20284100EA18
:102A60000800064306F00F06E21704EBD26252118B
:102A7000920002F1E022D2F800212146E31704EB94
:102A8000D3635B11A4EB431C012303FA0CF31A4339
:102A90002046E31704EBD3635B119B0003F1E023B3
:102AA000C3F800210348005D40EA061001490855BB
:102AB000BDE8F08100E400E00146072323EA0102BB
:102AC0001202054B18684FF6FF031840034B1843DA
:102AD0001043014B186070470CED00E00000FA0550
:102AE0004A0A52020243014B1A60704708ED00E0A7
:102AF00070B500240CE0002506E00020074901EB3A
:102B0000C5010855681CC5B2802DF6DB601CC4B237
:102B1000082CF0DB00F0E0F870BD0000E4050020B8
:102B2000F0B5144600267F2801DC3F2900DDF0BD0A
:102B30000B46CF1701EB5777FF10C7F10707FAB223
:102B4000CF1701EB5777FF10A1EBC707FDB2C5F117
:102B500007070123BB40DEB24CB10A4B03EBC003B5
:102B60009B5C3343074F07EBC007BB5408E0054BA2
:102B700003EBC0039B5CB343024F07EBC007BB549E
:102B800000BFD4E7E40500201CB54D48006840F0C4
:102B900002004B4908600846006840F008000860E1
:102BA0000120032100230246CDE900104FF4A0418B
:102BB0004448FFF7C1FA0120032100230246CDE972
:102BC000001081024048FFF7B7FA01203F49086032
:102BD0003F49C1F8B80200203E490860642001F076
:102BE00001FB01203A49C1F8B002642001F0FAFA71
:102BF0000021AE2000F05AF90021D52000F056F94E
:102C00000021502000F052F90021A82000F04EF9D8
:102C100000213F2000F04AF90021D32000F046F9BE
:102C20000021084600F042F90021402000F03EF962
:102C300000218D2000F03AF90021142000F036F92F
:102C40000021202000F032F90021022000F02EF9AE
:102C50000021A12000F02AF90021C02000F026F96F
:102C60000021DA2000F022F90021122000F01EF9E4
:102C70000021812000F01AF90021EF2000F016F960
:102C80000021D92000F012F90021F12000F00EF906
:102C90000021DB2000F00AF90021302000F006F9C5
:102CA0000021A42000F002F90021A62000F0FEF887
:102CB0000021AF2000F0FAF8FFF71AFF1CBD00005A
:102CC0003038024000040240000C0240A882414219
:102CD00000804042B082404270B5002425E004F1FB
:102CE000B001C8B2002100F0E1F80021084600F070
:102CF000DDF80021102000F0D9F801200C4908600F
:102D000000200C49C1F8A802002507E00A4901EBA0
:102D1000C501085D00F044F9681CC5B2802DF5DBE3
:102D2000012006490860601CC4B2082CD7DB70BDC6
:102D3000B882404200804142E4050020A88241421E
:102D40002DE9F84F80460F4616461C46BA462046E7
:102D5000E31704EB5373DB1021464FEAE47C04EBEA
:102D60005C7C4FEAEC0CA4EBCC0CBCF1000F02D065
:102D70004FF0010C01E04FF0000C6344224604EBDD
:102D8000D27C4FEA6C0C03FB0CF303F0FF0BA6F1B3
:102D90002000C6B200254EE00C2C07D106EB460001
:102DA000274901EB8000405D009013E0102C05D115
:102DB000244800EB0610405D00900BE0182C07D172
:102DC00006EBC600204901EB8000405D009001E069
:102DD000BDE8F88F4FF0000927E0009800F0800070
:102DE00028B1394640460A9AFFF79AFE09E00A9848
:102DF00008B9012000E00020024639464046FFF7AE
:102E00008FFE00984006000E0090781CC7B2A7EB1A
:102E10000A00A04205D1574608F1010000F0FF0862
:102E200006E009F1010000F0FF09B9F1080FD4DB59
:102E300000BF681CC5B25D45AEDB00BFC8E700003F
:102E40000A5800087E5C00086E620008F8B5064665
:102E50000F4615461C4621E004EBD4714910C1F120
:102E60008001B14202DA00263819C7B2C4F140002D
:102E7000B84204DA002006460746FFF739FE012073
:102E800000902A78234639463046FFF759FF2046FE
:102E900004EBD07106EB6101CEB26D1C28787E2860
:102EA00002DC28782028D7DAF8BD000070B5054686
:102EB0000C461CB101200A49086002E000200849C4
:102EC0000860002007490860284600F069F80120E2
:102ED0000549C1F8A80200200149086070BD000042
:102EE000B8824042A8824142008041421CB5002481
:102EF0002848006840F00200264908602548103044
:102F0000006840F48040234910310860012003210B
:102F100000230222CDE900104FF420411E48FFF7A4
:102F20000BF905220D211C48FFF7E6F805220F21B9
:102F30001948FFF7E1F817481038006840F480405E
:102F40001449103908600846006820F48040086081
:102F500000BF44F4007444F4807444F0040400BFDF
:102F600000BF00BF44F0180400BF0C4804800B48A9
:102F70001C30008820F4006008491C310880074894
:102F8000008840F0400005490880FF2000F008F864
:102F90001CBD0000303802400004024000380040F0
:102FA000014600BF0A48008800F002000028F9D05E
:102FB0000748001D018000BF0548008800F001009F
:102FC0000028F9D00248001D0088C0B270470000F8
:102FD00008380040F0B504460D4616461F46144812
:102FE000006840F0010012490860002010490831D3
:102FF00008600F4800680F4908400D4908600E48F6
:10300000091D0860081F006820F48020091F08605F
:10301000002007490C3108603B46324629462046CD
:1030200000F026F800210846FFF75AFDF0BD000029
:1030300000380240FFFFF6FE1030002410B500BF3C
:10304000502080F31188BFF34F8FBFF36F8F00BF05
:1030500001F016FD18B14FF080500449086000BF20
:10306000002080F3118800BF10BD000004ED00E0D7
:10307000F0B504460D46002100203D4E366846F46A
:1030800080363B4F3E6001E04E1CB1B2384E366890
:1030900006F400361EB941F6FF76B142F4DB41F684
:1030A000FF76B14201D1012060E0314E40363668F2
:1030B00046F080562E4F40373E602E4E366846F41E
:1030C00040462C4F3E602A4E0836366846F4144679
:1030D000274F08373E60264E366826F08076244F0C
:1030E0003E6045EA84160127C7EB520746EA0746C9
:1030F00046EA036646F480061D4F3F1D3E603E1FB4
:10310000366846F080763F1F3E6000BF184E366836
:1031100006F00076002EF9D0174E366846F4807619
:10312000154F3E603E46366846F400763E603E46A9
:10313000366846F480663E603E46366846F00506D0
:103140003E600B4E0836366826F00306084F0837F7
:103150003E603E46366846F002063E6000BF044EC2
:103160000836366806F00C06082EF8D1F0BD0000CF
:103170000038024000700040003C024070B5054637
:103180000C460D48006840F001000B4908600B48F0
:10319000C5620485808940F001000849888108469D
:1031A000008840F0010008800223192219460120FE
:1031B000FFF746FC70BD00004438024000000140AB
:1031C0000948008A00F0010038B10848006808B9D1
:1031D000012000E00020054908600348008A20F033
:1031E000010001490882704700000140B482414259
:1031F0001CB53648006840F00100344908600846B4
:10320000006840F00200086030481030006840F06C
:1032100001002E49103108600120022100230A46D6
:10322000CDE90010C1032A48FEF786FF01200221E4
:1032300000230A46CDE9001008212648FEF77CFF4E
:1032400001220F212248FEF757FF012203212148C6
:10325000FEF752FF00204FF080410885801EC862B3
:103260000846008820F4407008800846008820F056
:10327000600008800846008B40F001000883084683
:10328000008B40F4807008830846008C20F0020018
:1032900008840846008C20F0200008840846008B33
:1032A00040F0300008830846008B40F4405008830B
:1032B0000846008940F00300088100204862084663
:1032C000008840F0010008801CBD0000303802403A
:1032D00000000240000402404FF08040008A00F0ED
:1032E000010040B340F2DC501749486342F6041035
:1032F000886342F23410C86341F2941008641348A2
:10330000006800B2124908800846B0F9000011496F
:10331000088011480068B1F9001008440E4908609F
:1033200008460068B0F5FA6F02DB002006494863E2
:103330000020064908604FF08040008A20F001001C
:103340004FF0804108827047000001402404004093
:1033500060000020620000206800002010B52348B3
:10336000008800F00100002838D044F274002049A1
:10337000086042F60410091D086042F23410091D6D
:10338000086043F68C40091D08600806406A00B2D8
:10339000184908800846B0F9000017490880174806
:1033A0000068B1F900100844144908600846006834
:1033B00041F28831884208DB00200D490860091D70
:1033C0000860091D0860091D086000204FF0804159
:1033D00048620A48008800B200F07AFF034800887B
:1033E00020F001000149088010BD000010040040D9
:1033F00034040140600000206200002068000020CA
:1034000041200A494870312088703220C8700D2050
:1034100008710A20487101200549087006200549F5
:10342000087026200449888070470000FC010020B5
:1034300036000020350000200010014041200A49DC
:103440004870352088703620C8700D2008710A2019
:10345000487101200549087006200549087026209A
:1034600004490880704700008C0300203B000020C6
:103470003A0000200444004041200A4948703720A7
:1034800088703820C8700D2008710A20487101200A
:10349000054908700620054908702620044908805F
:1034A000704700001C050020400000203F00002065
:1034B0000448004000B53648008800F0200000288D
:1034C00042D0334880883349087031480088002052
:1034D0002F4908802F480078232802D02E281DD19C
:1034E00006E023202C49087001202C4908702AE0AE
:1034F00029484078412806D047280CD0482806D0D3
:10350000532809D102E0FFF77BFF05E004E001202A
:103510002349087000E000BF00BF00BF1D480078CD
:103520001D491E4A127888541C480078401C1B49CB
:10353000087008460078282804DB282008707320CB
:103540001849087000BF00BF1148008800F0400013
:10355000E8B1154800781549097888420BDA144813
:1035600011490978405C0A4988800F480078401C5E
:103570000D49087006E000200E4908700B480078DD
:10358000094908700248008800200149088000BDF0
:1035900000100140380000203401002037000020D6
:1035A00044000020430000203600002035000020A9
:1035B000FC0100203400002000B53648008800F0EF
:1035C0002000002840D03348001D00883249087090
:1035D0003048008800202F4908802F480078232891
:1035E00002D02E281AD106E023202C490870012091
:1035F0002B49087027E029484078412806D0472801
:1036000009D04B2806D0532806D102E0FFF716FF59
:1036100002E001E000E000BF00BF00BF1E480078EC
:103620001E491F4A127888541D480078401C1C49C6
:10363000087008460078282804DB282008707320CA
:103640001849087000BF00BF1248008800F0400011
:10365000F0B1154800781549097888420CDA144809
:1036600011490978405C0B49091D08800E48007813
:10367000401C0D49087006E000200E4908700B48F8
:103680000078094908700348008800200149088033
:1036900000BD0000004400403D000020C4020020A6
:1036A0003C000020430000203B0000203A000020A6
:1036B0008C0300203900002000B53648008800F057
:1036C0002000002840D03348001D0088324908708F
:1036D0003048008800202F4908802F480078232890
:1036E00002D02E281AD106E023202C490870012090
:1036F0002B49087027E029484078412806D0472800
:1037000009D04B2806D0532806D102E0FFF7B4FEBB
:1037100002E001E000E000BF00BF00BF1E480078EB
:103720001E491F4A127888541D480078401C1C49C5
:10373000087008460078282804DB282008707320C9
:103740001849087000BF00BF1248008800F0400010
:10375000F0B1154800781549097888420CDA144808
:1037600011490978405C0B49091D08800E48007812
:10377000401C0D49087006E000200E4908700B48F7
:103780000078094908700348008800200149088032
:1037900000BD00000048004042000020540400200A
:1037A0004100002043000020400000203F00002096
:1037B0001C0500203E00002003B401984100009841
:1037C00050EAC12018BF04204A0D18BF40F0010084
:1037D00040F2FF72B2EB515F08BF40F002000128D7
:1037E00008BF052002B0704770B5C1482DED020B2F
:1037F0002DED0E8B82B0119D25F000449FEDBEDBB8
:103800009FEDBFEB84423EDBA4F140511098A1F143
:103810007F6108430FD0BC48844202DC28D1109855
:1038200030B39DED100B02B0BDEC0E8B02B0BDE8C5
:10383000704000F071BC9DED100B53EC1D2B51EC52
:10384000100B01F0A5FC9DED100B41EC180B53EC97
:103850001E2B51EC100B01F09BFC53EC182B01F0CC
:103860004FFA41EC100B02B0BDEC0E8B02B070BDF4
:103870000120FCF75FFE02B0BDEC0E8B02B0BDE88C
:10388000704000F05DBCA1489FEDA18B844256DAE8
:103890009DED100BB4F1795F0ADA51EC100BFFF7D4
:1038A0008BFF042808BF00F05BFC9DED100BDAE7EE
:1038B00053EC102B51EC100B01F06AFC41EC190B8E
:1038C00095480621B0EE490AF0EE690A784400F006
:1038D000A7FB53EC192B51EC100B01F059FC41ECF8
:1038E0001A0B8E48B0EE490AF0EE690A04217844BA
:1038F00000F096FB53EC192B51EC100B01F048FC37
:1039000053EC182B01F0FCF941EC100B51EC1A0BA5
:1039100053EC102B01F0A8FACDE900019DED000B4E
:1039200053EC102B9DED100B51EC100B01F030FC03
:103930009DED101B53EC112B01F0E2F9D2E09DED4F
:10394000100B51EC100B00F0A9FC53EC182B01F0FC
:103950001DFD9FED730BCDE9000153EC102B9DED88
:10396000000B51EC100B01F013FC41EC190B6E48ED
:103970000621B0EE490AF0EE690A784400F050FBE7
:1039800053EC192B51EC100B01F002FC41EC1B0B1A
:103990006648B0EE490AF0EE690A0421784400F066
:1039A0003FFB53EC192B51EC100B01F0F1FB53ECE6
:1039B000182B01F0A5F941EC1C0B51EC190B00F090
:1039C000B9FE41EC180B5A489FED5BABA04222DCDC
:1039D00053EC1C2B51EC1B0B01F046FACDE9000116
:1039E0009DED000B51EC180B53EC102B01F0D0FBAC
:1039F00053EC182B01F084F953EC1A2B01F0C8FB9F
:103A000053EC1D2B01F09AFD53EC1E2B01F0BEFC74
:103A100041EC100B5FE08DED008B002000909DEDE0
:103A2000000B51EC180B53EC102B01F069F99DEDD4
:103A3000000B41EC1E0B53EC102B51EC100B01F062
:103A4000A7FB53EC192B01F0A1FC53EC1E2B01F04A
:103A50000BFA41EC190B53EC1C2B51EC1B0B01F036
:103A600003FA41EC1B0B53EC1A2B51EC190B01F030
:103A70008FFB53EC1D2B01F089FC41EC190B53EC2F
:103A80001A2B51EC180B01F083FB53EC1B2B01F0AC
:103A90007FFB53EC192B01F051FD9DED000B41EC28
:103AA000180B53EC1A2B51EC100B01F071FB9FED2E
:103AB000249B53EC192B01F069FC41EC100B51ECE9
:103AC000180B53EC102B01F039FD53EC192B01F0BE
:103AD0005DFC41EC100B002D3FF7C5AE51EC100B17
:103AE00001F0D0F841EC100BBDE600000000000032
:103AF0000000F03F00000000075C143326A6913C54
:103B0000182D4454FB21F93F0000F07F0000E03FF6
:103B1000000000000000F03F003700000E370000FA
:103B2000000000000000E03F523600006036000058
:103B30003333EF3F000000000000000000000040B1
:103B4000182D4454FB21E93F70B59B482DED020B25
:103B50002DED068B079D25F00044A04218DC974808
:103B6000844202DC0AD1069840B19DED060BBDEC03
:103B7000068B02B0BDE8704000F0CEBA002DCCBF7D
:103B80009FED8F0B9FED900BBDEC068B02B070BDCF
:103B90008F48A04215DD8F48A042D8BF4FF0FF34B8
:103BA00058DD9DED060B51EC100BFFF705FE0428C8
:103BB00008BF00F0D5FA9DED060BBDEC068B02B0F8
:103BC00070BD9DED060B51EC100B00F067FBCDE9CD
:103BD000060181489FED828BA0423CDD8248A042D5
:103BE0001FDD00249FED82AB9DED060B53EC1A2BDD
:103BF00051EC100B01F084F89DED060B41EC190B14
:103C000053EC1A2B51EC100B01F0C2FA53EC182BA9
:103C100001F094FC53EC192B01F026F9CDE90601D3
:103C200049E09DED060B012453EC182B51EC100BD1
:103C300001F066F89DED060B41EC190B53EC182BC7
:103C400051EC100B01F07AFC53EC192B01F00CF93C
:103C5000CDE906012FE06848A0421FDD02249FED58
:103C6000689B9DED060B53EC192B51EC100B01F0EA
:103C70008FFA53EC182B01F043F89DED060B41EC45
:103C8000180B53EC192B51EC100B01F057FC53ECB3
:103C9000182B01F0E9F8CDE906010CE09DED060BCB
:103CA000032453EC102B9FED580B51EC100B01F03B
:103CB000DBF8CDE906019DED060B53EC102B51EC22
:103CC000100B01F065FA41EC180B53EC182B01F0C6
:103CD0005FFA41EC190B4E480621B0EE490AF0EEAE
:103CE000690A784400F09CF953EC182B51EC100B46
:103CF00001F04EFA41EC180B4648B0EE490AF0EEDE
:103D0000690A0521784400F08BF953EC192B51EC2A
:103D1000100B01F03DFA41EC100B51EC180B53EC79
:103D2000102B002C0EDA00F0EBFF9DED061B53EC80
:103D3000112B01F02DFA9DED061B53EC112B01F018
:103D400025FB35E000F0DCFF9DED061B53EC112B4D
:103D500001F01EFA41EC100B2F48784400EBC40030
:103D600090ED001B51EC100B53EC112B01F0E6FB16
:103D70009DED061B53EC112B01F0E0FB41EC100B09
:103D80002648784400EBC40090ED001B51EC100B6A
:103D900053EC112B01F0FAFA41EC100B002DA2BFED
:103DA000BDEC068B02B070BD51EC100B00F06AFF49
:103DB00041EC100B01E70000000010440000F07F10
:103DC000182D4454FB21F93F182D4454FB21F9BF11
:103DD0000000DC3F0000203E0000F33F0000000038
:103DE000000000000000F03F0000E63F000000007F
:103DF00000000000000000400080034000000000C0
:103E0000000000000000F83F000000000000F0BFCC
:103E1000A233000058330000E23200009A32000062
:103E200070B56F4E2DED040B2DED048B82B0DDF8D7
:103E300024C0DDE907235C422CF000411C4341EA29
:103E4000D474069D22F00040B44205D86C422C4345
:103E500040EAD474B4420BD99DED081B9DED060BCE
:103E600002B0BDEC048B04B0BDE8704000F05EB958
:103E7000ACF14054A4F17F641C430BD0022404EA4B
:103E8000AC7444EAD27405439FED578B9FED582BD9
:103E900007D015E09DED060B51EC100B00F079F901
:103EA00042E0002C11BF012C9DED060B02B0BDECD1
:103EB000048B04BF04B070BD022C38D0032C3BD05F
:103EC0000B439FED4D1B9FED4E0B0AD0B14218D115
:103ED000B04209D121F0804120F080400991079043
:103EE0000FE0002A15DA10E0474B7B44002C08BF96
:103EF00093ED000B0DD0012C10D0022C17D0032C09
:103F00001AD0B0421DD1002A03DAB0EE410AF0EE19
:103F1000610A02B0BDEC048B04B070BD93ED000BE0
:103F200051EC100B00F0AEFE41EC100BF1E7B0EEDF
:103F3000480AF0EE680AECE7B0EE420AF0EE620AD8
:103F4000E7E7401A00159FED329B3C28C8BF8DED76
:103F5000000B17DCBCF1000FBCBF10F13C0F8DED66
:103F6000009B0FDB9DED080B53EC102B9DED060B1A
:103F700051EC100B00F078FF00F090F900F009F917
:103F8000CDE90001B4B1012C10D0022C9FED220B21
:103F900053EC102B9DED000B51EC100B19D001F0E0
:103FA000CDFA53EC182B01F0C9FABDE7019880F067
:103FB000004001909DED000B53EC192B51EC100BC0
:103FC00001F0AAF804BF0220FCF7B4FA9DED000B43
:103FD0009FE701F0B3FA53EC182B01F0D7F9A3E7F0
:103FE0000000F07F00000000182D4454FB21094020
:103FF000182D4454FB2109C0182D4454FB21F9BF4E
:10400000182D4454FB21F93FCA3100000000000084
:104010000000000000000000075C143326A6A13C4D
:1040200070B504462DED028B4D1E00EBC500B0EEC1
:10403000408AF0EE608A90ED000B35F0060017D054
:1040400053EC182B51EC100B01F0A2F841EC100BC3
:104050006D1E04EBC50090ED001B51EC100B53ECF2
:10406000112B00F04DFE41EC100B35F00600E7D1AE
:10407000022D36D0042D1CD0062D1CBFBDEC028BAA
:1040800070BD53EC182B51EC100B01F081F894ED3E
:104090000A1B53EC112B00F033FE53EC182B01F0EC
:1040A00077F894ED081B53EC112B00F029FE41EC3E
:1040B000100B53EC182B51EC100B01F069F894ED38
:1040C000061B53EC112B00F01BFE53EC182B01F0D8
:1040D0005FF894ED040B53EC102B00F011FE41EC53
:1040E000100B53EC182B51EC100B01F051F894ED20
:1040F000021B53EC112B00F003FE53EC182B01F0C4
:1041000047F894ED001B53EC112B00F0F9FDBDECCA
:10411000028B41EC100B70BD10B553EC102B51EC21
:10412000100B00F0EDFD41EC100B10BD10B553EC81
:10413000112B51EC100B00F0E3FD41EC100B10BD06
:104140009FED050B10B553EC102B51EC100B00F04C
:104150008BFE41EC100B10BD0000000000000000C1
:104160009FED050B10B553EC102B51EC100B01F02B
:104170000FF841EC100B10BD000000000000001013
:1041800030380A2801D2012070470020704700BF54
:10419000704710B541EC100BFFF7D6FC51EC100B3B
:1041A00010BD00004FF0E021096921F004014FF03B
:1041B000E0221161C21700EB5272C2F3C702074B33
:1041C0001A701946097801EB4102C2EBC1114FF692
:1041D000FF7202EAC101024A1180704754000020B8
:1041E0005600002070B504464FF4077094FBF0F0C1
:1041F000C6B24FF4077094FBF0F100FB114085B29A
:1042000005E04FF4077000F02BF8701EC6B2002EC8
:10421000F7D115B1284600F023F870BD014601B969
:1042200070470E4A12784A434FF0E0235A61002249
:104230009A6101221A6100BF4FF0E022106900F07C
:1042400001021AB100F48032002AF5D000224FF0AA
:10425000E0231A619A6100BFE2E7000054000020E9
:1042600001460D4A12884A434FF0E0235A6100226A
:104270009A6101221A6100BF4FF0E022106900F03C
:1042800001021AB100F48032002AF5D000224FF06A
:10429000E0231A619A6170475600002082B0CDE990
:1042A000000121F0004001909DED000B02B051ECA7
:1042B000100B704700BF054A128802F04002002A26
:1042C000F9D0C2B2014B9A80704700000010014043
:1042D000F0B5002805DB2B27DFF80CC18CF8007047
:1042E00006E02D27DFF800C18CF80070474238B295
:1042F0000246104642F2107792FBF7F7F9B240F20D
:10430000712711FB07F7A2EB07174FF47A7C97FB95
:10431000FCF7FBB240F2712711FB07F7A2EB07177E
:1043200003EB430CCCEBC31CA7EBCC074FF0640CA6
:1043300097FBFCF7FCB240F2712711FB07F7A2EBE9
:10434000071703EB430CCCEBC31CA7EBCC0704EB28
:10435000C40C0CEB041CA7EB8C074FF00A0C97FB6A
:10436000FCF5012711FB07F7A2EB071703EB430C42
:10437000CCEBC31CA7EBCC0704EBC40C0CEB041C6C
:10438000A7EB8C0705EB850CA7EB4C0601F130077A
:10439000DFF854C08CF8017003F130078CF802701C
:1043A00004F130078CF8037005F130078CF80470C5
:1043B00006F130078CF805700D278CF806700A2777
:1043C0008CF807700127DFF824C08CF800700827EC
:1043D000DFF81CC08CF80070034F3F78DFF814C082
:1043E000ACF80470F0BD0000FC0100203600002095
:1043F0003500002000100140F0EE400AF6EE001AF1
:1044000060EEA11AB0EE611AB0EE600A10EE100A6A
:104410000749A1EB600000EE100A21EE002AF7EE3A
:10442000081A42EE401A61EE801AB0EE610A704737
:10443000DF59375F2DED048B0723022208214FF44B
:10444000A870FEF7C7FDA820FFF7ACFEFDF7A4FF9C
:10445000FEF796F8C820FFF7C5FEFDF741F9642086
:10446000FFF7C0FE4FF4E131542000F09BF94FF408
:10447000E1312A2000F016FA1420FFF7CFFEFDF7F5
:10448000F5FC44F29F1140F2CF70FEF777FEFEF785
:104490002DFD1420FFF7C2FEFEF776FB1420FFF778
:1044A000BDFE1420FFF7BAFE1420FFF7B7FEFEF79B
:1044B0009FFE1420FFF7B2FEFDF700FB1420FFF76C
:1044C000ADFEFDF753FFFDF77FFD00207A49086040
:1044D000091D0860091D0860091D0860FEF708FB3A
:1044E000102376A200210846FEF7B0FCFEF7F4FB8D
:1044F0004FF47A70FFF776FEFEF7FAFADAE07348C7
:104500000068401C71490860084600680A2809D301
:10451000002008606E48006808B9012000E0002013
:104520006B4908606B480078002862D06A480078C0
:10453000401C69490870002066490870674A68494C
:104540006848FDF7F5FF684A68496948FDF7C8FF04
:104550006448B0F9000000EE100AB8EEC00ADFEDC2
:10456000650A20EE200AB0EE408A5D48B0F90000EE
:1045700000EE100AB8EEC00ADFED5E0A20EE200A57
:10458000F0EE408A5548B0F9000000EE100AB8EE8F
:10459000C00ADFED580A20EE200AB0EE409A9FEDE7
:1045A000563A5148B0F9000000EE100AF8EEC02A61
:1045B0004E48B0F9000000EE100AB8EEC02A4C4890
:1045C000B0F9000000EE100AF8EEC01AB0EE491A79
:1045D000F0EE680AB0EE480AFDF7C4F84748FCF769
:1045E00085FF3A4800680A2802D30020374908604E
:1045F00000BF394800780A285CDB00203649087083
:104600003848B0F9000000EE100AB8EEC00ADFED3D
:10461000390A20EE200AB0EE409A3148B0F9000085
:1046200000EE100AB8EEC00ADFED320A20EE200AD2
:10463000B0EE408A2948B0F9000000EE100AB8EE4A
:10464000C00ADFED2C0A20EE200AF0EE408A2B484B
:1046500090ED020AB0EE404A90ED010AF0EE403AC9
:1046600090ED000AB0EE403A1F48B0F9000000EEAD
:10467000100AF8EEC02A1D48B0F9000000EE100A3A
:10468000B8EEC02A1A48B0F9000000EE100AF8EEA1
:10469000C01AB0EE681AF0EE480AB0EE490AFDF70B
:1046A000BBFD1748006808B9012000E0002014494C
:1046B000086000BF23E7000034040140537973749D
:1046C000656D20496E6974204F4B00002800002062
:1046D000940241425C0000202700002004000020DA
:1046E00002000020000000200A0000200800002036
:1046F0000600002089A18B3A6F12833AE80000205F
:10470000BC82414209480068006808B9012000E005
:10471000002020B14FF0FF300549086005E0034854
:104720000068C0680068024908607047780000208F
:10473000A400002000B52DED048B83B041EC190BD3
:1047400000F030FE41EC180B18EE100A18EE901A2B
:104750008DED008B002818BF0120084320F0004099
:10476000C0F17F6000F1E040C00F14D019EE101AC4
:1047700019EE900A8DED009B002918BF0121084316
:1047800020F00040C0F17F6000F1E040C00F04BFA6
:104790000120FBF7CFFE51EC180B03B0BDEC048BEE
:1047A00000BD0000F0B52DED028B83B005460E462E
:1047B000384905FB01F000EE100AF8EE400A30011E
:1047C00000EE100AB8EE400A80EE801AB0EE418A80
:1047D000BCEEC80A10EE100A84B200EE104AB8EE21
:1047E000400A38EE400AF3EE000A20EE200ABCEE42
:1047F000C00A10EE107A4FF6FF7000EA0414E019B8
:1048000084B22548006840F001002349086022482E
:104810001430006840F010001F4914310860012076
:10482000022100230A46CDE900104FF4C0611B4865
:10483000FDF782FC072209211848FDF75DFC0722DD
:104840000A211648FDF758FC15480481808920F498
:104850000040134988810846808A40F0C000888261
:104860000846808940F01C0088810846808920F035
:10487000E00088810223252219461846FEF7E0F859
:104880000748808940F400500549888103B0BDEC99
:10489000028BF0BD40420F00303802400000024061
:1048A0000010014030B50246354C544300EE904AAA
:1048B000B8EE601A0C0100EE904AF8EE600AC1EE04
:1048C000201AB0EE610AFCEEC00A10EE904AA0B2C7
:1048D00000EE900AF8EE600A70EE600AB3EE001A7D
:1048E00060EE810AFCEEE00A10EE903A4FF6FF749B
:1048F00004EA0010C418A0B2224C246844F0010459
:10490000204D2C601F4C1034246844F400341D4D9D
:1049100010352C601C4C246824F0F0041A4D2C60D7
:104920002C46246844F0A0042C602C46A46844F073
:10493000A004AC602C46246A24F47F442C622C46EC
:10494000246A44F4EE442C62104C2080241D2488F8
:1049500024F400440D4D2D1D2C800C4C0C34248867
:1049600044F08004094D0C352C80084C241D24880B
:1049700042F208052C43054D2D1D2C8030BD000052
:1049800040420F003038024000000240084400401E
:1049900000BF502080F31188BFF34F8FBFF36F8F9C
:1049A00000BF00BFFEE7704770B53048006818B11F
:1049B00001202F49086057E000202D49086000BF02
:1049C0002C480068046B4FF0A5362068B0F1A53F75
:1049D0000BD16068B0F1A53F07D1A068B0F1A53F49
:1049E00003D1E068B0F1A53F09D02248006800F18A
:1049F000340529461F480068FFF7CAFF00BF00BF03
:104A000000BF1D480068B0FA80F0C0F11F0101EB43
:104A100081001A4A52F8200008B1012000E000206D
:104A200050B900BF502080F31188BFF34F8FBFF300
:104A30006F8F00BF00BFFEE700BF01EB81020F4B8D
:104A400003EB820042685268426000F1080243684A
:104A5000934201D1C26842604268D268054B1A6035
:104A600000BF00BF1846006870BD0000B000002005
:104A700098000020740000208C000020640B0020AF
:104A80002DE9F0414FF000086848006800287DD10A
:104A900067480068451C664805601DBB00BF654847
:104AA0000068006808B9012000E0002050B900BF8C
:104AB000502080F31188BFF34F8FBFF36F8F00BF7B
:104AC00000BFFEE75B4807685B480068594908601B
:104AD0005948076059480068401C58490860FFF76A
:104AE00011FE00BF5648006885427ED300BF514882
:104AF0000068006808B9012000E0002020B14FF0F4
:104B0000FF304F4908606FE04A480068C068C468D9
:104B10006668B54202D24A48066065E000BF606937
:104B2000D4E902128A60D4E902214A60211D426858
:104B30008A4201D1E1684160002262610168491E38
:104B4000016000BFA06AA0B100BFA06AD4E907124B
:104B50008A60D4E907214A6004F1180142688A4258
:104B600001D1216A41600022A2620168491E0160F0
:104B700000BF00BF94F82C1001208840314909681B
:104B800008433049086000BFE16A00E044E001EBFF
:104B900081012D4A02EB81014868A0608268E260D1
:104BA000211D826851608160E16A01EB8101264A22
:104BB00002EB81026261E16A01EB8101224A52F853
:104BC0002110491CE26A02EB82021F4B43F82210BB
:104BD00000BF00BF1D49E06A0968C96A884286D9DA
:104BE0004FF0010883E700E000BF18480068C06A82
:104BF00000EB8000144951F82000012801D94FF042
:104C000001081348006808B9FFF7CDFE1148006895
:104C100008B14FF0010806E00D480068401C0C493F
:104C20000860FFF7C0FE4046BDE8F081B0000020FC
:104C300088000020780000207C0000209C000020DC
:104C4000A40000208C000020640B002074000020D1
:104C5000940000209800002010B500290AD00878A0
:104C6000002807D005487844FCF738F8002801D020
:104C7000002010BD0248784410BD00000E25000041
:104C80000625000081F00041704780F00040704729
:104C900021F00041704720F00040704721F00042B1
:104CA000A2F16052B2F5801F01F0004328BFD2F19B
:104CB0007F6C0BD95FEA001C43EAC20242EB5070E2
:104CC00018BF704728BF20F001007047B2F5801F61
:104CD000BCBF184670474FEA410C1CF5001F02D2BA
:104CE000084600F08BBD70B500F0FCFA00000089AA
:104CF000FFF7F6BF4FF00040A0F5800070470000BE
:104D000010B591EA030F48BF83F0004300F11E8401
:104D1000841A71EB030C05D2121943EB0C03001B30
:104D200061EB0C01DFF824E14FEA1154A4EB135CB2
:104D30001EEA430F18BF9EEA445F73D023EA0E03B6
:104D4000DCF1200E21EA045143F4801332D322FA1D
:104D50000CFE10EB0E0023FA0CFE41EB0E01CCF121
:104D6000200E03FA0EFE10EB0E0051F10001B1F51A
:104D7000801FCCF1200E32D201EB045112FA0EF258
:104D8000BDE8104058BF7047401C38BF5FEA420280
:104D900018BF7047002814BF20F0010041F1000146
:104DA0004FEA410313F5001F38BF7047A1F1C0411E
:104DB00000F0E6BA012A43EB0302ACF1200CDCF16F
:104DC0001F0E32BF4FF0000E23FA0CF310EB03005E
:104DD00041EB0451B4EB115FD0D0A1EB045101F5CC
:104DE000801149085FEA300001EB04510ED350F105
:104DF000000038BF12FA0EFE08D1BDE81040C9E726
:104E0000401C38BF5FEA4202CAD1C3E7BDE8104088
:104E10004FEA410313F5001F38BF7047A1F1C041AD
:104E200000F0AEBA9EEA445F08D011EA5E0FBDE81A
:104E3000104004BF01F0004100207047BDE8104061
:104E400070B500F04FFA00BF64FBBE3E0000E0FF0B
:104E5000491058BFC1F140415B1058BFC3F14043F6
:104E60008B42EFF3008070472DE9C04130B4DFF88A
:104E7000A0C23CEA111418BF3CEA131400F0EC8005
:104E800081EA03051CEA111444EAD57418BF1CEA30
:104E9000131500F0C780A4EB05044FF0004545EA68
:104EA000C12145EAC32341EA505143EA525304F178
:104EB0007F74994204F500344FEAC0204FEAC222C1
:104EC00008BF904200F09C804FEA13650FF2401635
:104ED000765D4FEA134506FB05F7C7F1807706FBC1
:104EE00007F74FEAD737A7FB03687642C8F5803843
:104EF000A7FB06CE38BFA8F1010807FB08E64FF074
:104F0000000EA6FB028CE6FB03CEDCF1000CCEF11A
:104F1000004E38BFAEF1010EA6FB0C584FF0000753
:104F20004FF00005E6FB0E87A1FB08C6A0FB07CEED
:104F300016EB0E0645F10005E1FB076515F1E04EA5
:104F40007EBFA4F580345FEA46066D4116F1800706
:104F500045F100054FEA17274FEA066647EA05675D
:104F6000A6F1DE46B6F1805F4FEA15251FD9384617
:104F700024F0010C05EBC471BCF1FE6F01EB0C11C8
:104F800002D8F0BCBDE8008124425CBF01F5801E60
:104F90009EEAC47F02D4F0BCBDE80081244238D42C
:104FA000F0BCA1F1C041BDE8004100F0E9B94FEA11
:104FB000D22242EA43524FEAD323A7FB02864FEAAA
:104FC000D02040EA415007FB03661EEA0E0F4FEA6D
:104FD000D12105FB026658BFA6EB0056B6EB005682
:104FE0004FEA520E4EEAC37E18EB0E0E56EB530EEE
:104FF000BDD518EB02085E417F1C55F10005B6E7F0
:105000004FF480154FF000074FF000064FF00008F6
:10501000ADE7F0BC4FF0000001F1C04101F00041EC
:10502000BDE8008111EA0C1F0CEA131500D00CE05A
:1050300013EA0C1F00F025804FF00000F0BC81EA5D
:10504000030101F00041BDE80081F0BCBDE8004172
:1050500081EA030100F094B9F0BCBDE8004170B5ED
:1050600000F040F9097EFC3E00F007B881EA030138
:105070004FF0000001F00041704781EA030100F0A9
:105080007FB9F0BCBDE800414FF0000021497047F6
:10509000FFFDFBF9F7F5F4F2F0EEEDEBE9E8E6E4FD
:1050A000E3E1E0DEDDDBDAD8D7D5D4D3D1D0CFCD84
:1050B000CCCBCAC8C7C6C5C4C2C1C0BFBEBDBCBBBD
:1050C000BAB9B8B7B6B5B4B3B2B1B0AFAEADACABB8
:1050D000AAA9A8A8A7A6A5A4A3A3A2A1A09F9F9E92
:1050E0009D9C9C9B9A999998979796959594939344
:1050F000929191908F8F8E8E8D8C8C8B8B8A8989DB
:10510000888887878685858484838382828181805D
:105110000000FF070000F87F51EA030C17D41CF5CC
:10512000801F58BFBCF5801F00F10680994218BF50
:10513000704708BF9042704707D711F5801F58BFCE
:1051400013F5801F19D499427047894270471CF5A6
:10515000801F08D5BCF5801FF7D58B4218BF70475C
:1051600008BF824270474FF4001C1CEB410F38BF50
:105170001CEB430F01D28B42704770B500F0B2F8C0
:10518000922449004FF000514FF08053FFF760BE6A
:10519000DFF848C170B51CEA111E1EBF1CEA1315CA
:1051A0009EEA0C0F95EA0C0F00F06F8081EA030471
:1051B00023EA4C134EEAD47E21EA4C1141F48011CB
:1051C00043F48013AE44A1FB024CA0FB0365AEF197
:1051D0007F7E361955EB0C05A1FB034C4CF1000307
:1051E000A0FB021C16EB0C06654153F100030942BB
:1051F00018BF46F0010613F4007F0BD14FEA0331CC
:105200004FEA0530340341EA155140EA16506FF079
:1052100003020AE04FEAC3214FEAC520F40241EA43
:10522000555140EA56506FF0020202EB2E4201EB5C
:10523000025585EACE710AD05FEA440C18BF24F00B
:10524000004450F1000041F1000120EAD47040F226
:10525000FE7C624500D270BDA84214BF4FF080446E
:105260004FF04044002E08BF0024BEF1806FA8BF5D
:10527000A1F1C041BDE8704080F282804FF0000093
:1052800001F1C04101F0004170479EEA0C0F0CEAA9
:10529000131518BF95EA0C0F06D04FF0000081EAF5
:1052A000030E0EF0004170BD00F01CF88900013EB5
:1052B00000F007B800F009B84FEA430C5FEA5C5C05
:1052C00008D081EA030100F05BB84FEA410C5FEAC5
:1052D0005C5CF6D14FF00000014970470000FF0709
:1052E0000000F87F0EF1020E2EF0030E5EF8046B44
:1052F000364205D4012A43EB030515F5001F12D8E9
:10530000012841EB010C1CF5001F0CD80ED14FEA0F
:10531000D17C15F5001F0CEB4C0C0CF1020C08BFF6
:105320004CEBD37C04E04FF0080C01E04FEAD37C57
:105330000CEB4C0526FA05F606F00706B6F1040C50
:1053400006D20EEB860CBDE870404CF0010C6047B5
:10535000DFE80CF0090B02024FF000414FF00000B3
:10536000A1F5002170BD19461046012851EB01043A
:1053700018BFD4F5001484BF002001F0004170BDB7
:105380000808A0F500114FEA3101704791EA030FB8
:1053900010B581F000413FF5BBAC83F0004300F055
:1053A000D5B800002DE9F04101F5801CBCF5001FC7
:1053B000C0F2A9804FEA115C21EA0C510CF1FD0CFE
:1053C00041F480115FEA5C0C0CF5C07C01D3400015
:1053D000494130A4890241EA905187028E0E0A0C9D
:1053E000A45D04FB04F602FB06F6C6F14046A4FBEE
:1053F0000662F60D46EA422606FB06F4A4FB0123EC
:105400005242C3F1404338BF5B1EA6FB0242002458
:10541000E6FB0324D20B42EA4446A6FB0623A1FB8B
:1054200002E2A3FB07E4E3FB61426442C2F1404EA7
:1054300038BFAEF1010EA6FB04234FF00002E6FBDD
:105440000E32A2FB03463400E2FB6264A1FB06E6D7
:10545000A4FB07E8E4FB61687642C8F1405838BF16
:10546000A8F10108A2FB06E4A3FB08E5E2FB6854EF
:10547000A1FB05E6A7FB04E8E1FB648618F1200523
:1054800056F10006A809A8F11B08B10908F03F0869
:10549000B8F10A0F40EA86601CD901EB0C51BDE857
:1054A000F08100BFFCF5EEE8E2DDD8D3CFCBC7C377
:1054B000C0BDB9B6B4B1AEACA9A7A5A3A19F9D9B31
:1054C0009A9896959392908F8D8C8B8988878685F4
:1054D00084838281A0FB006800FB01F208EB420894
:1054E000B8EB872807D5341858EB0104D5D5401CF4
:1054F00051F10001D1E7341A78EB0104CDD4401EFC
:1055000071F10001C9E75FEA4C0C5FEA9C5C0DD1C8
:1055100005D34FF0000001F00041BDE8F081BDE887
:10552000F04170B5FFF7DEFE6DDBFFBEBDE8F04178
:105530004FF00000004970470000F87F10B591EA75
:10554000030F48BF83F000433FF5E2AB841A71EBD1
:10555000030C07D212198CF0004C43EB0C03001B18
:1055600061EB0C01DFF8A4E14FEA1154A4EB135CEA
:105570001EEA430F18BF9EEA445F00F0B08023EAA2
:105580006E03524221EA0451C3EB6E0338BF5B1E27
:10559000DCF1200E25D322FA0CFE10EB0E0043FAAC
:1055A0000CFE41EB0E01CCF1200E03FA0EFE10EBC7
:1055B0000E0051F10001CCF1200E29D412FA0EF2A6
:1055C00001EB0451BDE8104058BF7047401C1CBFA0
:1055D000B2F1004F704700280CBF491C20F00100B9
:1055E000704712EB020E43EB030218BF4FF0010E9F
:1055F0004EEA4202ACF1200CDCF11E0E54D943FA03
:105600000CFE10EB0E0051F1FF31CCF11E0ED5D582
:105610000EF1010E12FA0EFE404141EB010101EBC9
:10562000445C5FEA5C5C10D910EBDE7001EB045166
:1056300038BFBEF1004FBDE8104018BF70470028CA
:105640000CBF491C20F00100704730D24FEAD42C27
:1056500011F5001124F400641BD0B1FA81F20B3A69
:10566000A41AA41ED2F12003914030FA03F3194387
:10567000904001EBCC71002C01EB0451BDE81040CF
:10568000A8BF704701F1C0414FF0000001F0004198
:105690007047B0FA80F310FA03F100D110BDE41A9C
:1056A000173C4805C90AE4E701EB045110BD491055
:1056B00001EB0451BDE810404FEA300002E04FF02A
:1056C000000170474A0008BF0042F8D0B2F5001F41
:1056D00028BF704701F000414FF0000070479EEA7C
:1056E000445F07D011EA5E0FBDE8104004BF0021FF
:1056F00000207047BDE8104070B5FFF7F3FD00BF14
:1057000040DFF63E83F00041104670470000E0FFA6
:1057100043004FEAD30C4FEA3C0C43401FBF400705
:105720000CF1605113F0FE4F70471CF0006F03D175
:1057300000200CF0004170470CF0004343EA507029
:1057400010B540EACC0000F00EF800BF0000009257
:105750004FEA0001FFF714BE4FF000414FF0000088
:10576000A1F5002170470EF1020E2EF0030E5EF837
:10577000044B244204D44FEA4102B2F17F4F11D8C6
:105780004FEA4003B3F17F4F0CD80ED14FEAD07CE3
:10579000B2F17F4F0CEB4C0C0CF1020C08BF4CEB40
:1057A000D17C04E04FF0080C01E04FEAD17C0CEB17
:1057B0004C0324FA03F404F00704B4F1040C06D2F9
:1057C0000EEB840CBDE810404CF0010C6047DFE8A4
:1057D0000CF0070802024FF00040A0F5800010BD59
:1057E0000846420018BFD2F1807288BF00F0004026
:1057F00010BD4FF04070E1EE100A7047FF2141EA02
:10580000D050C0057047FAF7CDBF0000000000007F
:10581000000000000000000000003F400000000009
:10582000000000003000400030004000000009008F
:105830000BC03D000BC03D00090018C024407FE0B4
:10584000224031800000180024C01B000D8032402F
:10585000018003801C4027401C800740004010004E
:1058600060000000000000000000000000000000D8
:105870001F80204040200000402020401F8000006A
:105880000000090006001F80060009000000040057
:1058900004003F80040004000000001000600000CD
:1058A00000000000000004000400040004000400E4
:1058B0000000000000400000000000000000002088
:1058C00001C006003800400000001F80204020403A
:1058D00020401F800000000010403FC0004000003A
:1058E000000018C0214022402440184000001080D1
:1058F0002040244024401B80000002000D001100C5
:105900003FC0014000003C802440244024402380CC
:1059100000001F80244024403440038000003000F9
:10592000200027C03800200000001B8024402440B5
:1059300024401B8000001C0022C0224022401F8007
:10594000000000000000084000000000000000000F
:1059500000000460000000000000000004000A00D5
:1059600011002080404009000900090009000900D9
:10597000000000004040208011000A0004001800D0
:10598000200023402400180000001F8020402740F2
:1059900029401F400000004007C039000F0001C02F
:1059A000004020403FC0244024401B8000001F8056
:1059B0002040204020403080000020403FC0204058
:1059C00020401F80000020403FC024402E4030C0B7
:1059D000000020403FC024402E00300000000F0097
:1059E0001080204022403380020020403FC004004D
:1059F00004003FC02040204020403FC020402040C5
:105A000000000060202020203FC020002000204017
:105A10003FC024400B0030C0204020403FC0204009
:105A20000040004000C03FC03C0003C03C003FC0FD
:105A3000000020403FC00C4023003FC020001F80DA
:105A40002040204020401F80000020403FC02440D4
:105A50002400180000001F802140214020E01FA0EA
:105A6000000020403FC02440260019C0004018C05C
:105A700024402440224031800000300020403FC0BC
:105A800020403000000020003F80004000403F8068
:105A9000200020003E0001C0070038002000380030
:105AA00007C03C0007C038000000204039C0060095
:105AB00039C0204000002000384007C03840200096
:105AC0000000304021C02640384020C000000000C7
:105AD00000007FE0402040200000000070000C002B
